{
  "contractName": "user",
  "abi": [
    {
      "inputs": [
        {
          "internalType": "bytes32",
          "name": "uid",
          "type": "bytes32"
        }
      ],
      "name": "registerUser",
      "outputs": [],
      "stateMutability": "nonpayable",
      "type": "function"
    },
    {
      "inputs": [
        {
          "internalType": "bytes32",
          "name": "uid",
          "type": "bytes32"
        }
      ],
      "name": "getUserPublicKey",
      "outputs": [
        {
          "internalType": "address",
          "name": "",
          "type": "address"
        }
      ],
      "stateMutability": "view",
      "type": "function"
    },
    {
      "inputs": [
        {
          "internalType": "bytes32",
          "name": "uid",
          "type": "bytes32"
        }
      ],
      "name": "checkUserExists",
      "outputs": [
        {
          "internalType": "bool",
          "name": "",
          "type": "bool"
        }
      ],
      "stateMutability": "view",
      "type": "function"
    }
  ],
  "bytecode": "0x608060405234801561001057600080fd5b50610308806100206000396000f3fe608060405234801561001057600080fd5b50600436106100415760003560e01c80632dc03259146100465780636cc0e2121461006257806377f1b8bc14610092575b600080fd5b610060600480360381019061005b9190610213565b6100c2565b005b61007c60048036038101906100779190610213565b6100ce565b6040516100899190610281565b60405180910390f35b6100ac60048036038101906100a79190610213565b61010a565b6040516100b991906102b7565b60405180910390f35b6100cb81610184565b50565b600080600083815260200190815260200160002060009054906101000a900473ffffffffffffffffffffffffffffffffffffffff169050919050565b60008073ffffffffffffffffffffffffffffffffffffffff1660008084815260200190815260200160002060009054906101000a900473ffffffffffffffffffffffffffffffffffffffff1673ffffffffffffffffffffffffffffffffffffffff161461017a576001905061017f565b600090505b919050565b3360008083815260200190815260200160002060006101000a81548173ffffffffffffffffffffffffffffffffffffffff021916908373ffffffffffffffffffffffffffffffffffffffff16021790555050565b600080fd5b6000819050919050565b6101f0816101dd565b81146101fb57600080fd5b50565b60008135905061020d816101e7565b92915050565b600060208284031215610229576102286101d8565b5b6000610237848285016101fe565b91505092915050565b600073ffffffffffffffffffffffffffffffffffffffff82169050919050565b600061026b82610240565b9050919050565b61027b81610260565b82525050565b60006020820190506102966000830184610272565b92915050565b60008115159050919050565b6102b18161029c565b82525050565b60006020820190506102cc60008301846102a8565b9291505056fea26469706673582212202056f972c3a04e92526e17402032dffe70d97a092d85dcbd8c80b902b74d06d164736f6c63430008090033",
  "immutableReferences": {},
  "source": "// SPDX-License-Identifier: MIT\npragma solidity >0.8.0;\n\ncontract user {\n\n  mapping(bytes32 => address) userDetails;\n\n  function _register(bytes32 _uid) private {\n    userDetails[_uid] = msg.sender;\n  }\n\n  function registerUser(bytes32 uid) public {\n    _register(uid);\n  }\n\n  function getUserPublicKey(bytes32 uid) public view returns (address) {\n    return userDetails[uid];\n  }\n\n  // function deleteUser(bytes32 uid) public returns (bool){\n  //   if(userDetails[uid] != address(0)){\n  //     return false;\n  //   }\n  //   delete userDetails[uid];\n  //   return true;\n  // }\n\n  function checkUserExists(bytes32 uid) public view returns (bool){\n    if(userDetails[uid] != address(0)){\n      return true;\n    } else {\n      return false;\n    }\n  }\n}\n",
  "sourcePath": "/Users/ashu/Desktop/portfolio_projects/voting_sys_contract/contracts/user.sol",
  "compiler": {
    "name": "solc",
    "version": "0.8.9+commit.e5eed63a.Emscripten.clang"
  },
  "schemaVersion": "3.4.13",
  "updatedAt": "2023-03-17T14:56:28.483Z",
  "devdoc": {
    "kind": "dev",
    "methods": {},
    "version": 1
  },
  "userdoc": {
    "kind": "user",
    "methods": {},
    "version": 1
  }
}