{
  "contractName": "voting",
  "abi": [
    {
      "inputs": [
        {
          "internalType": "address",
          "name": "userContractAddress",
          "type": "address"
        }
      ],
      "stateMutability": "nonpayable",
      "type": "constructor"
    },
    {
      "inputs": [
        {
          "internalType": "bytes32",
          "name": "",
          "type": "bytes32"
        },
        {
          "internalType": "bytes32",
          "name": "",
          "type": "bytes32"
        }
      ],
      "name": "ballot_choices",
      "outputs": [
        {
          "internalType": "uint256",
          "name": "",
          "type": "uint256"
        }
      ],
      "stateMutability": "view",
      "type": "function"
    },
    {
      "inputs": [
        {
          "internalType": "bytes32",
          "name": "",
          "type": "bytes32"
        },
        {
          "internalType": "uint256",
          "name": "",
          "type": "uint256"
        }
      ],
      "name": "ballot_votes",
      "outputs": [
        {
          "internalType": "bytes32",
          "name": "uid",
          "type": "bytes32"
        },
        {
          "internalType": "bytes32",
          "name": "ballot_id",
          "type": "bytes32"
        },
        {
          "internalType": "bytes32",
          "name": "choice",
          "type": "bytes32"
        },
        {
          "internalType": "uint256",
          "name": "timestamp",
          "type": "uint256"
        }
      ],
      "stateMutability": "view",
      "type": "function"
    },
    {
      "inputs": [
        {
          "internalType": "bytes32",
          "name": "",
          "type": "bytes32"
        }
      ],
      "name": "ballots",
      "outputs": [
        {
          "internalType": "bytes32",
          "name": "ballot_id",
          "type": "bytes32"
        },
        {
          "internalType": "bytes32",
          "name": "result",
          "type": "bytes32"
        },
        {
          "internalType": "uint256",
          "name": "start_time",
          "type": "uint256"
        },
        {
          "internalType": "uint256",
          "name": "end_time",
          "type": "uint256"
        },
        {
          "internalType": "uint256",
          "name": "total_vote_count",
          "type": "uint256"
        }
      ],
      "stateMutability": "view",
      "type": "function"
    },
    {
      "inputs": [
        {
          "internalType": "bytes32",
          "name": "_uid",
          "type": "bytes32"
        },
        {
          "internalType": "bytes32",
          "name": "_ballot_id",
          "type": "bytes32"
        },
        {
          "internalType": "uint256",
          "name": "_start_time",
          "type": "uint256"
        },
        {
          "internalType": "uint256",
          "name": "_end_time",
          "type": "uint256"
        },
        {
          "internalType": "bytes32[]",
          "name": "_choices",
          "type": "bytes32[]"
        }
      ],
      "name": "createBallot",
      "outputs": [],
      "stateMutability": "nonpayable",
      "type": "function"
    },
    {
      "inputs": [
        {
          "internalType": "bytes32",
          "name": "_uid",
          "type": "bytes32"
        },
        {
          "internalType": "bytes32",
          "name": "_ballot_id",
          "type": "bytes32"
        },
        {
          "internalType": "bytes32",
          "name": "_choice",
          "type": "bytes32"
        }
      ],
      "name": "castVote",
      "outputs": [],
      "stateMutability": "nonpayable",
      "type": "function"
    },
    {
      "inputs": [
        {
          "internalType": "bytes32",
          "name": "_uid",
          "type": "bytes32"
        },
        {
          "internalType": "bytes32",
          "name": "_ballot_id",
          "type": "bytes32"
        }
      ],
      "name": "fetchBallot",
      "outputs": [
        {
          "components": [
            {
              "internalType": "bytes32",
              "name": "ballot_id",
              "type": "bytes32"
            },
            {
              "internalType": "bytes32",
              "name": "result",
              "type": "bytes32"
            },
            {
              "internalType": "bytes32[]",
              "name": "choices",
              "type": "bytes32[]"
            },
            {
              "internalType": "uint256",
              "name": "start_time",
              "type": "uint256"
            },
            {
              "internalType": "uint256",
              "name": "end_time",
              "type": "uint256"
            },
            {
              "internalType": "uint256",
              "name": "total_vote_count",
              "type": "uint256"
            }
          ],
          "internalType": "struct voting.Ballot",
          "name": "",
          "type": "tuple"
        }
      ],
      "stateMutability": "view",
      "type": "function"
    },
    {
      "inputs": [
        {
          "internalType": "bytes32",
          "name": "_uid",
          "type": "bytes32"
        },
        {
          "internalType": "bytes32",
          "name": "_ballot_id",
          "type": "bytes32"
        }
      ],
      "name": "updateBallotResult",
      "outputs": [
        {
          "components": [
            {
              "internalType": "bytes32",
              "name": "winner",
              "type": "bytes32"
            },
            {
              "internalType": "uint256",
              "name": "vote_count",
              "type": "uint256"
            }
          ],
          "internalType": "struct voting.BallotResult",
          "name": "",
          "type": "tuple"
        }
      ],
      "stateMutability": "nonpayable",
      "type": "function"
    }
  ],
  "bytecode": "0x60806040523480156200001157600080fd5b5060405162001a7638038062001a768339818101604052810190620000379190620000e8565b806000806101000a81548173ffffffffffffffffffffffffffffffffffffffff021916908373ffffffffffffffffffffffffffffffffffffffff160217905550506200011a565b600080fd5b600073ffffffffffffffffffffffffffffffffffffffff82169050919050565b6000620000b08262000083565b9050919050565b620000c281620000a3565b8114620000ce57600080fd5b50565b600081519050620000e281620000b7565b92915050565b6000602082840312156200010157620001006200007e565b5b60006200011184828501620000d1565b91505092915050565b61194c806200012a6000396000f3fe608060405234801561001057600080fd5b506004361061007d5760003560e01c80637dd0dd161161005b5780637dd0dd16146100ea578063b321d3921461011e578063c67485611461014e578063ece87abc146101815761007d565b8063384b72c91461008257806340b088811461009e578063460aa6e4146100ba575b600080fd5b61009c60048036038101906100979190610f9c565b6101b1565b005b6100b860048036038101906100b39190611033565b610420565b005b6100d460048036038101906100cf9190611086565b610768565b6040516100e19190611113565b60405180910390f35b61010460048036038101906100ff919061112e565b610a5d565b604051610115959493929190611179565b60405180910390f35b61013860048036038101906101339190611086565b610a93565b60405161014591906111cc565b60405180910390f35b610168600480360381019061016391906111e7565b610ab8565b6040516101789493929190611227565b60405180910390f35b61019b60048036038101906101969190611086565b610b05565b6040516101a891906113a4565b60405180910390f35b60008054906101000a900473ffffffffffffffffffffffffffffffffffffffff1673ffffffffffffffffffffffffffffffffffffffff166377f1b8bc866040518263ffffffff1660e01b815260040161020a91906113c6565b60206040518083038186803b15801561022257600080fd5b505afa158015610236573d6000803e3d6000fd5b505050506040513d601f19601f8201168201806040525081019061025a9190611419565b610299576040517f08c379a0000000000000000000000000000000000000000000000000000000008152600401610290906114a3565b60405180910390fd5b82421080156102a757508183115b6102e6576040517f08c379a00000000000000000000000000000000000000000000000000000000081526004016102dd9061150f565b60405180910390fd5b814210610328576040517f08c379a000000000000000000000000000000000000000000000000000000000815260040161031f9061157b565b60405180910390fd5b60006002600086815260200190815260200160002050602060ff1614610383576040517f08c379a000000000000000000000000000000000000000000000000000000000815260040161037a906115e7565b60405180910390fd5b61038b610d00565b8481600001818152505083816060018181525050828160800181815250508181604001819052508060026000878152602001908152602001600020600082015181600001556020820151816001015560408201518160020190805190602001906103f6929190610d3c565b50606082015181600301556080820151816004015560a08201518160050155905050505050505050565b828260008054906101000a900473ffffffffffffffffffffffffffffffffffffffff1673ffffffffffffffffffffffffffffffffffffffff166377f1b8bc836040518263ffffffff1660e01b815260040161047b91906113c6565b60206040518083038186803b15801561049357600080fd5b505afa1580156104a7573d6000803e3d6000fd5b505050506040513d601f19601f820116820180604052508101906104cb9190611419565b61050a576040517f08c379a0000000000000000000000000000000000000000000000000000000008152600401610501906114a3565b60405180910390fd5b60006002600083815260200190815260200160002050602060ff161415610566576040517f08c379a000000000000000000000000000000000000000000000000000000000815260040161055d90611653565b60405180910390fd5b60004290506002600086815260200190815260200160002060030154811180156105a55750600260008681526020019081526020016000206004015481105b6105e4576040517f08c379a00000000000000000000000000000000000000000000000000000000081526004016105db906116bf565b60405180910390fd5b6000602060ff161161062b576040517f08c379a00000000000000000000000000000000000000000000000000000000081526004016106229061172b565b60405180910390fd5b600060026000878152602001908152602001600020905060006040518060800160405280898152602001888152602001878152602001848152509050600360008881526020019081526020016000208190806001815401808255809150506001900390600052602060002090600402016000909190919091506000820151816000015560208201518160010155604082015181600201556060820151816003015550508160050160008154809291906106e39061177a565b919050555060018060008a8152602001908152602001600020600089815260200190815260200160002060006101000a81548160ff02191690831515021790555060046000888152602001908152602001600020600087815260200190815260200160002060008154809291906107599061177a565b91905055505050505050505050565b610770610d89565b828260008054906101000a900473ffffffffffffffffffffffffffffffffffffffff1673ffffffffffffffffffffffffffffffffffffffff166377f1b8bc836040518263ffffffff1660e01b81526004016107cb91906113c6565b60206040518083038186803b1580156107e357600080fd5b505afa1580156107f7573d6000803e3d6000fd5b505050506040513d601f19601f8201168201806040525081019061081b9190611419565b61085a576040517f08c379a0000000000000000000000000000000000000000000000000000000008152600401610851906114a3565b60405180910390fd5b60006002600083815260200190815260200160002050602060ff1614156108b6576040517f08c379a00000000000000000000000000000000000000000000000000000000081526004016108ad90611653565b60405180910390fd5b6002600085815260200190815260200160002060040154421161090e576040517f08c379a000000000000000000000000000000000000000000000000000000000815260040161090590611835565b60405180910390fd5b60006002600086815260200190815260200160002050602060ff1614610969576040517f08c379a0000000000000000000000000000000000000000000000000000000008152600401610960906118c7565b60405180910390fd5b60008080600090505b6002600088815260200190815260200160002060020180549050811015610a175760006002600089815260200190815260200160002060020182815481106109bd576109bc6118e7565b5b906000526020600020015490506000600460008a8152602001908152602001600020600083815260200190815260200160002054905084811115610a02578094508193505b50508080610a0f9061177a565b915050610972565b50806002600088815260200190815260200160002060010181905550610a3b610d89565b8181600001818152505082816020018181525050809550505050505092915050565b60026020528060005260406000206000915090508060000154908060010154908060030154908060040154908060050154905085565b6004602052816000526040600020602052806000526040600020600091509150505481565b60036020528160005260406000208181548110610ad457600080fd5b9060005260206000209060040201600091509150508060000154908060010154908060020154908060030154905084565b610b0d610d00565b60008054906101000a900473ffffffffffffffffffffffffffffffffffffffff1673ffffffffffffffffffffffffffffffffffffffff166377f1b8bc846040518263ffffffff1660e01b8152600401610b6691906113c6565b60206040518083038186803b158015610b7e57600080fd5b505afa158015610b92573d6000803e3d6000fd5b505050506040513d601f19601f82011682018060405250810190610bb69190611419565b610bf5576040517f08c379a0000000000000000000000000000000000000000000000000000000008152600401610bec906114a3565b60405180910390fd5b60006002600084815260200190815260200160002050602060ff1614610c50576040517f08c379a0000000000000000000000000000000000000000000000000000000008152600401610c4790611653565b60405180910390fd5b600260008381526020019081526020016000206040518060c0016040529081600082015481526020016001820154815260200160028201805480602002602001604051908101604052809291908181526020018280548015610cd157602002820191906000526020600020905b815481526020019060010190808311610cbd575b505050505081526020016003820154815260200160048201548152602001600582015481525050905092915050565b6040518060c001604052806000801916815260200160008019168152602001606081526020016000815260200160008152602001600081525090565b828054828255906000526020600020908101928215610d78579160200282015b82811115610d77578251825591602001919060010190610d5c565b5b509050610d859190610da6565b5090565b604051806040016040528060008019168152602001600081525090565b5b80821115610dbf576000816000905550600101610da7565b5090565b6000604051905090565b600080fd5b600080fd5b6000819050919050565b610dea81610dd7565b8114610df557600080fd5b50565b600081359050610e0781610de1565b92915050565b6000819050919050565b610e2081610e0d565b8114610e2b57600080fd5b50565b600081359050610e3d81610e17565b92915050565b600080fd5b6000601f19601f8301169050919050565b7f4e487b7100000000000000000000000000000000000000000000000000000000600052604160045260246000fd5b610e9182610e48565b810181811067ffffffffffffffff82111715610eb057610eaf610e59565b5b80604052505050565b6000610ec3610dc3565b9050610ecf8282610e88565b919050565b600067ffffffffffffffff821115610eef57610eee610e59565b5b602082029050602081019050919050565b600080fd5b6000610f18610f1384610ed4565b610eb9565b90508083825260208201905060208402830185811115610f3b57610f3a610f00565b5b835b81811015610f645780610f508882610df8565b845260208401935050602081019050610f3d565b5050509392505050565b600082601f830112610f8357610f82610e43565b5b8135610f93848260208601610f05565b91505092915050565b600080600080600060a08688031215610fb857610fb7610dcd565b5b6000610fc688828901610df8565b9550506020610fd788828901610df8565b9450506040610fe888828901610e2e565b9350506060610ff988828901610e2e565b925050608086013567ffffffffffffffff81111561101a57611019610dd2565b5b61102688828901610f6e565b9150509295509295909350565b60008060006060848603121561104c5761104b610dcd565b5b600061105a86828701610df8565b935050602061106b86828701610df8565b925050604061107c86828701610df8565b9150509250925092565b6000806040838503121561109d5761109c610dcd565b5b60006110ab85828601610df8565b92505060206110bc85828601610df8565b9150509250929050565b6110cf81610dd7565b82525050565b6110de81610e0d565b82525050565b6040820160008201516110fa60008501826110c6565b50602082015161110d60208501826110d5565b50505050565b600060408201905061112860008301846110e4565b92915050565b60006020828403121561114457611143610dcd565b5b600061115284828501610df8565b91505092915050565b61116481610dd7565b82525050565b61117381610e0d565b82525050565b600060a08201905061118e600083018861115b565b61119b602083018761115b565b6111a8604083018661116a565b6111b5606083018561116a565b6111c2608083018461116a565b9695505050505050565b60006020820190506111e1600083018461116a565b92915050565b600080604083850312156111fe576111fd610dcd565b5b600061120c85828601610df8565b925050602061121d85828601610e2e565b9150509250929050565b600060808201905061123c600083018761115b565b611249602083018661115b565b611256604083018561115b565b611263606083018461116a565b95945050505050565b600081519050919050565b600082825260208201905092915050565b6000819050602082019050919050565b60006112a483836110c6565b60208301905092915050565b6000602082019050919050565b60006112c88261126c565b6112d28185611277565b93506112dd83611288565b8060005b8381101561130e5781516112f58882611298565b9750611300836112b0565b9250506001810190506112e1565b5085935050505092915050565b600060c08301600083015161133360008601826110c6565b50602083015161134660208601826110c6565b506040830151848203604086015261135e82826112bd565b915050606083015161137360608601826110d5565b50608083015161138660808601826110d5565b5060a083015161139960a08601826110d5565b508091505092915050565b600060208201905081810360008301526113be818461131b565b905092915050565b60006020820190506113db600083018461115b565b92915050565b60008115159050919050565b6113f6816113e1565b811461140157600080fd5b50565b600081519050611413816113ed565b92915050565b60006020828403121561142f5761142e610dcd565b5b600061143d84828501611404565b91505092915050565b600082825260208201905092915050565b7f5573657220646f6573206e6f7420657869737421000000000000000000000000600082015250565b600061148d601483611446565b915061149882611457565b602082019050919050565b600060208201905081810360008301526114bc81611480565b9050919050565b7f53746172742074696d65206973206e6f742076616c6964210000000000000000600082015250565b60006114f9601883611446565b9150611504826114c3565b602082019050919050565b60006020820190508181036000830152611528816114ec565b9050919050565b7f456e642074696d65206973206e6f742076616c69642100000000000000000000600082015250565b6000611565601683611446565b91506115708261152f565b602082019050919050565b6000602082019050818103600083015261159481611558565b9050919050565b7f42616c6c6f7420616c7265616479206578697374732100000000000000000000600082015250565b60006115d1601683611446565b91506115dc8261159b565b602082019050919050565b60006020820190508181036000830152611600816115c4565b9050919050565b7f42616c6c6f74206e6f7420657869737473210000000000000000000000000000600082015250565b600061163d601283611446565b915061164882611607565b602082019050919050565b6000602082019050818103600083015261166c81611630565b9050919050565b7f566f74696e67206e6f7420616c6c6f77656420617420746869732074696d6521600082015250565b60006116a9602083611446565b91506116b482611673565b602082019050919050565b600060208201905081810360008301526116d88161169c565b9050919050565b7f43686f696365206973206e6f742076616c696400000000000000000000000000600082015250565b6000611715601383611446565b9150611720826116df565b602082019050919050565b6000602082019050818103600083015261174481611708565b9050919050565b7f4e487b7100000000000000000000000000000000000000000000000000000000600052601160045260246000fd5b600061178582610e0d565b91507fffffffffffffffffffffffffffffffffffffffffffffffffffffffffffffffff8214156117b8576117b761174b565b5b600182019050919050565b7f566f696e6720697320696e2070726f67726573732c20776169742074696c6c2060008201527f656e642074696d65210000000000000000000000000000000000000000000000602082015250565b600061181f602983611446565b915061182a826117c3565b604082019050919050565b6000602082019050818103600083015261184e81611812565b9050919050565b7f42616c6c6f74277320726573756c7420697320616c726561647920757064617460008201527f6564210000000000000000000000000000000000000000000000000000000000602082015250565b60006118b1602383611446565b91506118bc82611855565b604082019050919050565b600060208201905081810360008301526118e0816118a4565b9050919050565b7f4e487b7100000000000000000000000000000000000000000000000000000000600052603260045260246000fdfea2646970667358221220d2afba0c888ca01edbb0d1e4142a6462c6346593ef223ca93f9123df8f789dc664736f6c63430008090033",
  "immutableReferences": {},
  "source": "// SPDX-License-Identifier: MIT\npragma solidity >0.8.0;\nimport \"./user.sol\";\n\ncontract voting {\n  user userContract;\n  constructor(address userContractAddress) {\n    userContract = user(userContractAddress);\n  }\n\n  struct Vote{\n    bytes32 uid;\n    bytes32 ballot_id;\n    bytes32 choice;\n    uint256 timestamp;\n  }\n\n  struct Ballot{\n    bytes32 ballot_id;\n    bytes32 result;\n    bytes32[] choices;\n    uint256 start_time;\n    uint256 end_time;\n    uint256 total_vote_count;\n  }\n\n  struct BallotResult {\n    bytes32 winner;\n    uint256 vote_count;\n  }\n\n  mapping(bytes32 => mapping(bytes32 => bool)) user_vote_casted;\n  mapping(bytes32 => Ballot) public ballots;\n  mapping(bytes32 => Vote[]) public ballot_votes;\n  mapping(bytes32 => mapping(bytes32 => uint256)) public ballot_choices;\n\n  modifier ballotCheck(bytes32 _uid, bytes32 _ballot_id){\n    require(userContract.checkUserExists(_uid), 'User does not exist!');\n    require(ballots[_ballot_id].ballot_id.length != 0, \"Ballot not exists!\");\n    _;\n  }\n\n  function createBallot(bytes32 _uid, bytes32 _ballot_id, uint256 _start_time, uint256 _end_time, bytes32[] memory _choices) public {\n    require(userContract.checkUserExists(_uid), 'User does not exist!');\n    require(block.timestamp < _start_time && _start_time > _end_time, \"Start time is not valid!\");\n    require(block.timestamp < _end_time, \"End time is not valid!\");\n    require(ballots[_ballot_id].ballot_id.length == 0, \"Ballot already exists!\");\n    Ballot memory newBallot;\n    newBallot.ballot_id = _ballot_id;\n    newBallot.start_time = _start_time;\n    newBallot.end_time = _end_time;\n    newBallot.choices = _choices;\n    ballots[_ballot_id] = newBallot;\n  }\n\n  function castVote(bytes32 _uid, bytes32 _ballot_id, bytes32 _choice) public ballotCheck(_uid, _ballot_id) {\n    uint256 _timestamp = block.timestamp;\n    require(_timestamp > ballots[_ballot_id].start_time && _timestamp < ballots[_ballot_id].end_time, \"Voting not allowed at this time!\");\n    require(_choice.length > 0, \"Choice is not valid\");\n    Ballot storage ballot = ballots[_ballot_id];\n    Vote memory newVote = Vote(_uid, _ballot_id, _choice, _timestamp);\n    ballot_votes[_ballot_id].push(newVote);\n    ballot.total_vote_count++;\n    user_vote_casted[_uid][_ballot_id] = true;\n    ballot_choices[_ballot_id][_choice]++;\n  }\n\n  function fetchBallot(bytes32 _uid, bytes32 _ballot_id) public view returns (Ballot memory){\n    require(userContract.checkUserExists(_uid), 'User does not exist!');\n    require(ballots[_ballot_id].ballot_id.length == 0, \"Ballot not exists!\");\n    return ballots[_ballot_id];\n  }\n\n  function updateBallotResult(bytes32 _uid, bytes32 _ballot_id) public ballotCheck(_uid, _ballot_id) returns(BallotResult memory){\n    require(block.timestamp > ballots[_ballot_id].end_time, \"Voing is in progress, wait till end time!\");\n    require(ballots[_ballot_id].result.length == 0, \"Ballot's result is already updated!\");\n\n    uint256 _maxVoteCount = 0;\n    bytes32 _winner;\n    for(uint256 i = 0; i < ballots[_ballot_id].choices.length ; i++){\n      bytes32 _choice = ballots[_ballot_id].choices[i];\n      uint _votes = ballot_choices[_ballot_id][_choice];\n      if(_votes > _maxVoteCount) {\n        _maxVoteCount = _votes;\n        _winner = _choice;\n      }\n    }\n    ballots[_ballot_id].result = _winner;\n\n    BallotResult memory _result;\n    _result.winner = _winner;\n    _result.vote_count = _maxVoteCount;\n    return _result;\n  }\n}\n",
  "sourcePath": "/Users/ashu/Desktop/portfolio_projects/voting_sys_contract/contracts/voting.sol",
  "compiler": {
    "name": "solc",
    "version": "0.8.9+commit.e5eed63a.Emscripten.clang"
  },
  "schemaVersion": "3.4.13",
  "updatedAt": "2023-03-17T14:56:28.484Z",
  "devdoc": {
    "kind": "dev",
    "methods": {},
    "version": 1
  },
  "userdoc": {
    "kind": "user",
    "methods": {},
    "version": 1
  }
}